{
  "_format": "hh-sol-artifact-1",
  "contractName": "EYENFTS",
  "sourceName": "contracts/nft.sol",
  "abi": [
    {
      "inputs": [
        {
          "internalType": "address",
          "name": "trustedForwarder",
          "type": "address"
        },
        {
          "internalType": "string",
          "name": "_initBaseURI",
          "type": "string"
        },
        {
          "internalType": "uint96",
          "name": "_royality",
          "type": "uint96"
        }
      ],
      "stateMutability": "nonpayable",
      "type": "constructor"
    },
    {
      "anonymous": false,
      "inputs": [
        {
          "indexed": true,
          "internalType": "address",
          "name": "owner",
          "type": "address"
        },
        {
          "indexed": true,
          "internalType": "address",
          "name": "approved",
          "type": "address"
        },
        {
          "indexed": true,
          "internalType": "uint256",
          "name": "tokenId",
          "type": "uint256"
        }
      ],
      "name": "Approval",
      "type": "event"
    },
    {
      "anonymous": false,
      "inputs": [
        {
          "indexed": true,
          "internalType": "address",
          "name": "owner",
          "type": "address"
        },
        {
          "indexed": true,
          "internalType": "address",
          "name": "operator",
          "type": "address"
        },
        {
          "indexed": false,
          "internalType": "bool",
          "name": "approved",
          "type": "bool"
        }
      ],
      "name": "ApprovalForAll",
      "type": "event"
    },
    {
      "anonymous": false,
      "inputs": [
        {
          "indexed": false,
          "internalType": "address",
          "name": "minter",
          "type": "address"
        },
        {
          "indexed": false,
          "internalType": "uint256",
          "name": "tokenId",
          "type": "uint256"
        }
      ],
      "name": "Mint",
      "type": "event"
    },
    {
      "anonymous": false,
      "inputs": [
        {
          "indexed": true,
          "internalType": "address",
          "name": "from",
          "type": "address"
        },
        {
          "indexed": true,
          "internalType": "address",
          "name": "to",
          "type": "address"
        },
        {
          "indexed": true,
          "internalType": "uint256",
          "name": "tokenId",
          "type": "uint256"
        }
      ],
      "name": "Transfer",
      "type": "event"
    },
    {
      "inputs": [],
      "name": "MAX_PER_MINT",
      "outputs": [
        {
          "internalType": "uint256",
          "name": "",
          "type": "uint256"
        }
      ],
      "stateMutability": "view",
      "type": "function"
    },
    {
      "inputs": [],
      "name": "MAX_SUPPLY",
      "outputs": [
        {
          "internalType": "uint256",
          "name": "",
          "type": "uint256"
        }
      ],
      "stateMutability": "view",
      "type": "function"
    },
    {
      "inputs": [
        {
          "internalType": "address",
          "name": "to",
          "type": "address"
        },
        {
          "internalType": "uint256",
          "name": "tokenId",
          "type": "uint256"
        }
      ],
      "name": "approve",
      "outputs": [],
      "stateMutability": "nonpayable",
      "type": "function"
    },
    {
      "inputs": [
        {
          "internalType": "address",
          "name": "owner",
          "type": "address"
        }
      ],
      "name": "balanceOf",
      "outputs": [
        {
          "internalType": "uint256",
          "name": "",
          "type": "uint256"
        }
      ],
      "stateMutability": "view",
      "type": "function"
    },
    {
      "inputs": [],
      "name": "baseExtension",
      "outputs": [
        {
          "internalType": "string",
          "name": "",
          "type": "string"
        }
      ],
      "stateMutability": "view",
      "type": "function"
    },
    {
      "inputs": [],
      "name": "baseURI",
      "outputs": [
        {
          "internalType": "string",
          "name": "",
          "type": "string"
        }
      ],
      "stateMutability": "view",
      "type": "function"
    },
    {
      "inputs": [
        {
          "internalType": "uint256",
          "name": "tokenId",
          "type": "uint256"
        }
      ],
      "name": "getApproved",
      "outputs": [
        {
          "internalType": "address",
          "name": "",
          "type": "address"
        }
      ],
      "stateMutability": "view",
      "type": "function"
    },
    {
      "inputs": [],
      "name": "getMerkelRoot",
      "outputs": [
        {
          "internalType": "bytes32",
          "name": "",
          "type": "bytes32"
        }
      ],
      "stateMutability": "view",
      "type": "function"
    },
    {
      "inputs": [
        {
          "internalType": "address",
          "name": "owner",
          "type": "address"
        },
        {
          "internalType": "address",
          "name": "operator",
          "type": "address"
        }
      ],
      "name": "isApprovedForAll",
      "outputs": [
        {
          "internalType": "bool",
          "name": "",
          "type": "bool"
        }
      ],
      "stateMutability": "view",
      "type": "function"
    },
    {
      "inputs": [
        {
          "internalType": "address",
          "name": "forwarder",
          "type": "address"
        }
      ],
      "name": "isTrustedForwarder",
      "outputs": [
        {
          "internalType": "bool",
          "name": "",
          "type": "bool"
        }
      ],
      "stateMutability": "view",
      "type": "function"
    },
    {
      "inputs": [
        {
          "internalType": "bytes32[]",
          "name": "_merkleProof",
          "type": "bytes32[]"
        }
      ],
      "name": "mintNFT",
      "outputs": [],
      "stateMutability": "nonpayable",
      "type": "function"
    },
    {
      "inputs": [],
      "name": "name",
      "outputs": [
        {
          "internalType": "string",
          "name": "",
          "type": "string"
        }
      ],
      "stateMutability": "view",
      "type": "function"
    },
    {
      "inputs": [],
      "name": "owner",
      "outputs": [
        {
          "internalType": "address",
          "name": "",
          "type": "address"
        }
      ],
      "stateMutability": "view",
      "type": "function"
    },
    {
      "inputs": [
        {
          "internalType": "uint256",
          "name": "tokenId",
          "type": "uint256"
        }
      ],
      "name": "ownerOf",
      "outputs": [
        {
          "internalType": "address",
          "name": "",
          "type": "address"
        }
      ],
      "stateMutability": "view",
      "type": "function"
    },
    {
      "inputs": [
        {
          "internalType": "uint256",
          "name": "_tokenId",
          "type": "uint256"
        },
        {
          "internalType": "uint256",
          "name": "_salePrice",
          "type": "uint256"
        }
      ],
      "name": "royaltyInfo",
      "outputs": [
        {
          "internalType": "address",
          "name": "",
          "type": "address"
        },
        {
          "internalType": "uint256",
          "name": "",
          "type": "uint256"
        }
      ],
      "stateMutability": "view",
      "type": "function"
    },
    {
      "inputs": [
        {
          "internalType": "address",
          "name": "from",
          "type": "address"
        },
        {
          "internalType": "address",
          "name": "to",
          "type": "address"
        },
        {
          "internalType": "uint256",
          "name": "tokenId",
          "type": "uint256"
        }
      ],
      "name": "safeTransferFrom",
      "outputs": [],
      "stateMutability": "nonpayable",
      "type": "function"
    },
    {
      "inputs": [
        {
          "internalType": "address",
          "name": "from",
          "type": "address"
        },
        {
          "internalType": "address",
          "name": "to",
          "type": "address"
        },
        {
          "internalType": "uint256",
          "name": "tokenId",
          "type": "uint256"
        },
        {
          "internalType": "bytes",
          "name": "_data",
          "type": "bytes"
        }
      ],
      "name": "safeTransferFrom",
      "outputs": [],
      "stateMutability": "nonpayable",
      "type": "function"
    },
    {
      "inputs": [
        {
          "internalType": "address",
          "name": "operator",
          "type": "address"
        },
        {
          "internalType": "bool",
          "name": "approved",
          "type": "bool"
        }
      ],
      "name": "setApprovalForAll",
      "outputs": [],
      "stateMutability": "nonpayable",
      "type": "function"
    },
    {
      "inputs": [
        {
          "internalType": "string",
          "name": "_newBaseURI",
          "type": "string"
        }
      ],
      "name": "setBaseURI",
      "outputs": [],
      "stateMutability": "nonpayable",
      "type": "function"
    },
    {
      "inputs": [
        {
          "internalType": "bytes32",
          "name": "_merklroot",
          "type": "bytes32"
        }
      ],
      "name": "setMerklRoot",
      "outputs": [],
      "stateMutability": "nonpayable",
      "type": "function"
    },
    {
      "inputs": [
        {
          "internalType": "bytes4",
          "name": "interfaceId",
          "type": "bytes4"
        }
      ],
      "name": "supportsInterface",
      "outputs": [
        {
          "internalType": "bool",
          "name": "",
          "type": "bool"
        }
      ],
      "stateMutability": "view",
      "type": "function"
    },
    {
      "inputs": [],
      "name": "symbol",
      "outputs": [
        {
          "internalType": "string",
          "name": "",
          "type": "string"
        }
      ],
      "stateMutability": "view",
      "type": "function"
    },
    {
      "inputs": [
        {
          "internalType": "uint256",
          "name": "index",
          "type": "uint256"
        }
      ],
      "name": "tokenByIndex",
      "outputs": [
        {
          "internalType": "uint256",
          "name": "",
          "type": "uint256"
        }
      ],
      "stateMutability": "view",
      "type": "function"
    },
    {
      "inputs": [
        {
          "internalType": "address",
          "name": "owner",
          "type": "address"
        },
        {
          "internalType": "uint256",
          "name": "index",
          "type": "uint256"
        }
      ],
      "name": "tokenOfOwnerByIndex",
      "outputs": [
        {
          "internalType": "uint256",
          "name": "",
          "type": "uint256"
        }
      ],
      "stateMutability": "view",
      "type": "function"
    },
    {
      "inputs": [
        {
          "internalType": "uint256",
          "name": "tokenId",
          "type": "uint256"
        }
      ],
      "name": "tokenURI",
      "outputs": [
        {
          "internalType": "string",
          "name": "",
          "type": "string"
        }
      ],
      "stateMutability": "view",
      "type": "function"
    },
    {
      "inputs": [],
      "name": "totalSupply",
      "outputs": [
        {
          "internalType": "uint256",
          "name": "",
          "type": "uint256"
        }
      ],
      "stateMutability": "view",
      "type": "function"
    },
    {
      "inputs": [
        {
          "internalType": "address",
          "name": "from",
          "type": "address"
        },
        {
          "internalType": "address",
          "name": "to",
          "type": "address"
        },
        {
          "internalType": "uint256",
          "name": "tokenId",
          "type": "uint256"
        }
      ],
      "name": "transferFrom",
      "outputs": [],
      "stateMutability": "nonpayable",
      "type": "function"
    },
    {
      "inputs": [
        {
          "internalType": "address",
          "name": "",
          "type": "address"
        }
      ],
      "name": "whitelistClaimed",
      "outputs": [
        {
          "internalType": "bool",
          "name": "",
          "type": "bool"
        }
      ],
      "stateMutability": "view",
      "type": "function"
    }
  ],
  "bytecode": "0x60806040526040518060400160405280600581526020017f2e6a736f6e000000000000000000000000000000000000000000000000000000815250601190805190602001906200005192919062000432565b503480156200005f57600080fd5b5060405162004b8c38038062004b8c83398181016040528101906200008591906200072d565b826040518060400160405280600681526020017f455945204f4e00000000000000000000000000000000000000000000000000008152506040518060400160405280600381526020017f455945000000000000000000000000000000000000000000000000000000000081525081600090805190602001906200010a92919062000432565b5080600190805190602001906200012392919062000432565b50505080600a60006101000a81548173ffffffffffffffffffffffffffffffffffffffff021916908373ffffffffffffffffffffffffffffffffffffffff1602179055505033600f60006101000a81548173ffffffffffffffffffffffffffffffffffffffff021916908373ffffffffffffffffffffffffffffffffffffffff160217905550620001bb3382620001d560201b60201c565b620001cc826200037960201b60201c565b5050506200099a565b620001e56200042860201b60201c565b6bffffffffffffffffffffffff16816bffffffffffffffffffffffff16111562000246576040517f08c379a00000000000000000000000000000000000000000000000000000000081526004016200023d906200082f565b60405180910390fd5b600073ffffffffffffffffffffffffffffffffffffffff168273ffffffffffffffffffffffffffffffffffffffff161415620002b9576040517f08c379a0000000000000000000000000000000000000000000000000000000008152600401620002b090620008a1565b60405180910390fd5b60405180604001604052808373ffffffffffffffffffffffffffffffffffffffff168152602001826bffffffffffffffffffffffff16815250600b60008201518160000160006101000a81548173ffffffffffffffffffffffffffffffffffffffff021916908373ffffffffffffffffffffffffffffffffffffffff16021790555060208201518160000160146101000a8154816bffffffffffffffffffffffff02191690836bffffffffffffffffffffffff1602179055509050505050565b3373ffffffffffffffffffffffffffffffffffffffff16600f60009054906101000a900473ffffffffffffffffffffffffffffffffffffffff1673ffffffffffffffffffffffffffffffffffffffff16146200040c576040517f08c379a0000000000000000000000000000000000000000000000000000000008152600401620004039062000913565b60405180910390fd5b80601090805190602001906200042492919062000432565b5050565b6000612710905090565b828054620004409062000964565b90600052602060002090601f016020900481019282620004645760008555620004b0565b82601f106200047f57805160ff1916838001178555620004b0565b82800160010185558215620004b0579182015b82811115620004af57825182559160200191906001019062000492565b5b509050620004bf9190620004c3565b5090565b5b80821115620004de576000816000905550600101620004c4565b5090565b6000604051905090565b600080fd5b600080fd5b600073ffffffffffffffffffffffffffffffffffffffff82169050919050565b60006200052382620004f6565b9050919050565b620005358162000516565b81146200054157600080fd5b50565b60008151905062000555816200052a565b92915050565b600080fd5b600080fd5b6000601f19601f8301169050919050565b7f4e487b7100000000000000000000000000000000000000000000000000000000600052604160045260246000fd5b620005b08262000565565b810181811067ffffffffffffffff82111715620005d257620005d162000576565b5b80604052505050565b6000620005e7620004e2565b9050620005f58282620005a5565b919050565b600067ffffffffffffffff82111562000618576200061762000576565b5b620006238262000565565b9050602081019050919050565b60005b838110156200065057808201518184015260208101905062000633565b8381111562000660576000848401525b50505050565b60006200067d6200067784620005fa565b620005db565b9050828152602081018484840111156200069c576200069b62000560565b5b620006a984828562000630565b509392505050565b600082601f830112620006c957620006c86200055b565b5b8151620006db84826020860162000666565b91505092915050565b60006bffffffffffffffffffffffff82169050919050565b6200070781620006e4565b81146200071357600080fd5b50565b6000815190506200072781620006fc565b92915050565b600080600060608486031215620007495762000748620004ec565b5b6000620007598682870162000544565b935050602084015167ffffffffffffffff8111156200077d576200077c620004f1565b5b6200078b86828701620006b1565b92505060406200079e8682870162000716565b9150509250925092565b600082825260208201905092915050565b7f455243323938313a20726f79616c7479206665652077696c6c2065786365656460008201527f2073616c65507269636500000000000000000000000000000000000000000000602082015250565b600062000817602a83620007a8565b91506200082482620007b9565b604082019050919050565b600060208201905081810360008301526200084a8162000808565b9050919050565b7f455243323938313a20696e76616c696420726563656976657200000000000000600082015250565b600062000889601983620007a8565b9150620008968262000851565b602082019050919050565b60006020820190508181036000830152620008bc816200087a565b9050919050565b7f4f776e61626c653a2063616c6c6572206973206e6f7420746865206f776e6572600082015250565b6000620008fb602083620007a8565b91506200090882620008c3565b602082019050919050565b600060208201905081810360008301526200092e81620008ec565b9050919050565b7f4e487b7100000000000000000000000000000000000000000000000000000000600052602260045260246000fd5b600060028204905060018216806200097d57607f821691505b6020821081141562000994576200099362000935565b5b50919050565b6141e280620009aa6000396000f3fe608060405234801561001057600080fd5b50600436106101c45760003560e01c80635b661039116100f9578063a22cb46511610097578063c87b56dd11610071578063c87b56dd1461051a578063db4bec441461054a578063de697d7f1461057a578063e985e9c514610598576101c4565b8063a22cb465146104c4578063b88d4fde146104e0578063c6682862146104fc576101c4565b806370a08231116100d357806370a082311461043c5780638da5cb5b1461046c57806395d89b411461048a5780639a18bb84146104a8576101c4565b80635b661039146103d25780636352211e146103ee5780636c0360eb1461041e576101c4565b80632a55205a1161016657806342842e0e1161014057806342842e0e1461033a5780634f6ccce71461035657806355f804b314610386578063572b6c05146103a2576101c4565b80632a55205a146102bb5780632f745c59146102ec57806332cb6b0c1461031c576101c4565b8063095ea7b3116101a2578063095ea7b31461024757806309d42b301461026357806318160ddd1461028157806323b872dd1461029f576101c4565b806301ffc9a7146101c957806306fdde03146101f9578063081812fc14610217575b600080fd5b6101e360048036038101906101de91906129e5565b6105c8565b6040516101f09190612a2d565b60405180910390f35b6102016105da565b60405161020e9190612ae1565b60405180910390f35b610231600480360381019061022c9190612b39565b61066c565b60405161023e9190612ba7565b60405180910390f35b610261600480360381019061025c9190612bee565b6106f1565b005b61026b610809565b6040516102789190612c3d565b60405180910390f35b61028961080e565b6040516102969190612c3d565b60405180910390f35b6102b960048036038101906102b49190612c58565b61081b565b005b6102d560048036038101906102d09190612cab565b61087b565b6040516102e3929190612ceb565b60405180910390f35b61030660048036038101906103019190612bee565b610a66565b6040516103139190612c3d565b60405180910390f35b610324610b0b565b6040516103319190612c3d565b60405180910390f35b610354600480360381019061034f9190612c58565b610b11565b005b610370600480360381019061036b9190612b39565b610b31565b60405161037d9190612c3d565b60405180910390f35b6103a0600480360381019061039b9190612e49565b610ba2565b005b6103bc60048036038101906103b79190612e92565b610c4c565b6040516103c99190612a2d565b60405180910390f35b6103ec60048036038101906103e79190612f1f565b610ca6565b005b61040860048036038101906104039190612b39565b610f6d565b6040516104159190612ba7565b60405180910390f35b61042661101f565b6040516104339190612ae1565b60405180910390f35b61045660048036038101906104519190612e92565b6110ad565b6040516104639190612c3d565b60405180910390f35b610474611165565b6040516104819190612ba7565b60405180910390f35b61049261118b565b60405161049f9190612ae1565b60405180910390f35b6104c260048036038101906104bd9190612fa2565b61121d565b005b6104de60048036038101906104d99190612ffb565b6112b7565b005b6104fa60048036038101906104f591906130dc565b6112cd565b005b61050461132f565b6040516105119190612ae1565b60405180910390f35b610534600480360381019061052f9190612b39565b6113bd565b6040516105419190612ae1565b60405180910390f35b610564600480360381019061055f9190612e92565b611467565b6040516105719190612a2d565b60405180910390f35b610582611487565b60405161058f919061316e565b60405180910390f35b6105b260048036038101906105ad9190613189565b611491565b6040516105bf9190612a2d565b60405180910390f35b60006105d382611525565b9050919050565b6060600080546105e9906131f8565b80601f0160208091040260200160405190810160405280929190818152602001828054610615906131f8565b80156106625780601f1061063757610100808354040283529160200191610662565b820191906000526020600020905b81548152906001019060200180831161064557829003601f168201915b5050505050905090565b60006106778261159f565b6106b6576040517f08c379a00000000000000000000000000000000000000000000000000000000081526004016106ad9061329c565b60405180910390fd5b6004600083815260200190815260200160002060009054906101000a900473ffffffffffffffffffffffffffffffffffffffff169050919050565b60006106fc82610f6d565b90508073ffffffffffffffffffffffffffffffffffffffff168373ffffffffffffffffffffffffffffffffffffffff16141561076d576040517f08c379a00000000000000000000000000000000000000000000000000000000081526004016107649061332e565b60405180910390fd5b8073ffffffffffffffffffffffffffffffffffffffff1661078c61160b565b73ffffffffffffffffffffffffffffffffffffffff1614806107bb57506107ba816107b561160b565b611491565b5b6107fa576040517f08c379a00000000000000000000000000000000000000000000000000000000081526004016107f1906133c0565b60405180910390fd5b610804838361161a565b505050565b600181565b6000600880549050905090565b61082c61082661160b565b826116d3565b61086b576040517f08c379a000000000000000000000000000000000000000000000000000000000815260040161086290613452565b60405180910390fd5b6108768383836117b1565b505050565b6000806000600c60008681526020019081526020016000206040518060400160405290816000820160009054906101000a900473ffffffffffffffffffffffffffffffffffffffff1673ffffffffffffffffffffffffffffffffffffffff1673ffffffffffffffffffffffffffffffffffffffff1681526020016000820160149054906101000a90046bffffffffffffffffffffffff166bffffffffffffffffffffffff166bffffffffffffffffffffffff16815250509050600073ffffffffffffffffffffffffffffffffffffffff16816000015173ffffffffffffffffffffffffffffffffffffffff161415610a1157600b6040518060400160405290816000820160009054906101000a900473ffffffffffffffffffffffffffffffffffffffff1673ffffffffffffffffffffffffffffffffffffffff1673ffffffffffffffffffffffffffffffffffffffff1681526020016000820160149054906101000a90046bffffffffffffffffffffffff166bffffffffffffffffffffffff166bffffffffffffffffffffffff168152505090505b6000610a1b611a18565b6bffffffffffffffffffffffff1682602001516bffffffffffffffffffffffff1686610a4791906134a1565b610a51919061352a565b90508160000151819350935050509250929050565b6000610a71836110ad565b8210610ab2576040517f08c379a0000000000000000000000000000000000000000000000000000000008152600401610aa9906135cd565b60405180910390fd5b600660008473ffffffffffffffffffffffffffffffffffffffff1673ffffffffffffffffffffffffffffffffffffffff168152602001908152602001600020600083815260200190815260200160002054905092915050565b610bb881565b610b2c838383604051806020016040528060008152506112cd565b505050565b6000610b3b61080e565b8210610b7c576040517f08c379a0000000000000000000000000000000000000000000000000000000008152600401610b739061365f565b60405180910390fd5b60088281548110610b9057610b8f61367f565b5b90600052602060002001549050919050565b3373ffffffffffffffffffffffffffffffffffffffff16600f60009054906101000a900473ffffffffffffffffffffffffffffffffffffffff1673ffffffffffffffffffffffffffffffffffffffff1614610c32576040517f08c379a0000000000000000000000000000000000000000000000000000000008152600401610c29906136fa565b60405180910390fd5b8060109080519060200190610c489291906128d6565b5050565b6000600a60009054906101000a900473ffffffffffffffffffffffffffffffffffffffff1673ffffffffffffffffffffffffffffffffffffffff168273ffffffffffffffffffffffffffffffffffffffff16149050919050565b6000610cb2600d611a22565b9050610bb88110610cf8576040517f08c379a0000000000000000000000000000000000000000000000000000000008152600401610cef90613766565b60405180910390fd5b6001610d0a610d0561160b565b6110ad565b1115610d4b576040517f08c379a0000000000000000000000000000000000000000000000000000000008152600401610d42906137f8565b60405180910390fd5b60126000610d5761160b565b73ffffffffffffffffffffffffffffffffffffffff1673ffffffffffffffffffffffffffffffffffffffff16815260200190815260200160002060009054906101000a900460ff1615610ddf576040517f08c379a0000000000000000000000000000000000000000000000000000000008152600401610dd690613864565b60405180910390fd5b6000610de961160b565b604051602001610df991906138cc565b604051602081830303815290604052805190602001209050610e5f848480806020026020016040519081016040528093929190818152602001838360200280828437600081840152601f19601f82011690508083019250505050505050600e5483611a30565b610e9e576040517f08c379a0000000000000000000000000000000000000000000000000000000008152600401610e9590613933565b60405180910390fd5b610ea8600d611a47565b6000610eb4600d611a22565b9050600160126000610ec461160b565b73ffffffffffffffffffffffffffffffffffffffff1673ffffffffffffffffffffffffffffffffffffffff16815260200190815260200160002060006101000a81548160ff021916908315150217905550610f26610f2061160b565b82611a5d565b7f0f6798a560793a54c3bcfe86a93cde1e73087d944c0ea20544137d4121396885610f4f61160b565b82604051610f5e929190612ceb565b60405180910390a15050505050565b6000806002600084815260200190815260200160002060009054906101000a900473ffffffffffffffffffffffffffffffffffffffff169050600073ffffffffffffffffffffffffffffffffffffffff168173ffffffffffffffffffffffffffffffffffffffff161415611016576040517f08c379a000000000000000000000000000000000000000000000000000000000815260040161100d906139c5565b60405180910390fd5b80915050919050565b6010805461102c906131f8565b80601f0160208091040260200160405190810160405280929190818152602001828054611058906131f8565b80156110a55780601f1061107a576101008083540402835291602001916110a5565b820191906000526020600020905b81548152906001019060200180831161108857829003601f168201915b505050505081565b60008073ffffffffffffffffffffffffffffffffffffffff168273ffffffffffffffffffffffffffffffffffffffff16141561111e576040517f08c379a000000000000000000000000000000000000000000000000000000000815260040161111590613a57565b60405180910390fd5b600360008373ffffffffffffffffffffffffffffffffffffffff1673ffffffffffffffffffffffffffffffffffffffff168152602001908152602001600020549050919050565b600f60009054906101000a900473ffffffffffffffffffffffffffffffffffffffff1681565b60606001805461119a906131f8565b80601f01602080910402602001604051908101604052809291908181526020018280546111c6906131f8565b80156112135780601f106111e857610100808354040283529160200191611213565b820191906000526020600020905b8154815290600101906020018083116111f657829003601f168201915b5050505050905090565b3373ffffffffffffffffffffffffffffffffffffffff16600f60009054906101000a900473ffffffffffffffffffffffffffffffffffffffff1673ffffffffffffffffffffffffffffffffffffffff16146112ad576040517f08c379a00000000000000000000000000000000000000000000000000000000081526004016112a4906136fa565b60405180910390fd5b80600e8190555050565b6112c96112c261160b565b8383611a7b565b5050565b6112de6112d861160b565b836116d3565b61131d576040517f08c379a000000000000000000000000000000000000000000000000000000000815260040161131490613452565b60405180910390fd5b61132984848484611be8565b50505050565b6011805461133c906131f8565b80601f0160208091040260200160405190810160405280929190818152602001828054611368906131f8565b80156113b55780601f1061138a576101008083540402835291602001916113b5565b820191906000526020600020905b81548152906001019060200180831161139857829003601f168201915b505050505081565b60606113c88261159f565b611407576040517f08c379a00000000000000000000000000000000000000000000000000000000081526004016113fe90613ae9565b60405180910390fd5b6000611411611c44565b90506000815111611431576040518060200160405280600081525061145f565b8061143b84611cd6565b601160405160200161144f93929190613bd9565b6040516020818303038152906040525b915050919050565b60126020528060005260406000206000915054906101000a900460ff1681565b6000600e54905090565b6000600560008473ffffffffffffffffffffffffffffffffffffffff1673ffffffffffffffffffffffffffffffffffffffff16815260200190815260200160002060008373ffffffffffffffffffffffffffffffffffffffff1673ffffffffffffffffffffffffffffffffffffffff16815260200190815260200160002060009054906101000a900460ff16905092915050565b60007f2a55205a000000000000000000000000000000000000000000000000000000007bffffffffffffffffffffffffffffffffffffffffffffffffffffffff1916827bffffffffffffffffffffffffffffffffffffffffffffffffffffffff19161480611598575061159782611e37565b5b9050919050565b60008073ffffffffffffffffffffffffffffffffffffffff166002600084815260200190815260200160002060009054906101000a900473ffffffffffffffffffffffffffffffffffffffff1673ffffffffffffffffffffffffffffffffffffffff1614159050919050565b6000611615611eb1565b905090565b816004600083815260200190815260200160002060006101000a81548173ffffffffffffffffffffffffffffffffffffffff021916908373ffffffffffffffffffffffffffffffffffffffff160217905550808273ffffffffffffffffffffffffffffffffffffffff1661168d83610f6d565b73ffffffffffffffffffffffffffffffffffffffff167f8c5be1e5ebec7d5bd14f71427d1e84f3dd0314c0f7b2291e5b200ac8c7c3b92560405160405180910390a45050565b60006116de8261159f565b61171d576040517f08c379a000000000000000000000000000000000000000000000000000000000815260040161171490613c7c565b60405180910390fd5b600061172883610f6d565b90508073ffffffffffffffffffffffffffffffffffffffff168473ffffffffffffffffffffffffffffffffffffffff16148061179757508373ffffffffffffffffffffffffffffffffffffffff1661177f8461066c565b73ffffffffffffffffffffffffffffffffffffffff16145b806117a857506117a78185611491565b5b91505092915050565b8273ffffffffffffffffffffffffffffffffffffffff166117d182610f6d565b73ffffffffffffffffffffffffffffffffffffffff1614611827576040517f08c379a000000000000000000000000000000000000000000000000000000000815260040161181e90613d0e565b60405180910390fd5b600073ffffffffffffffffffffffffffffffffffffffff168273ffffffffffffffffffffffffffffffffffffffff161415611897576040517f08c379a000000000000000000000000000000000000000000000000000000000815260040161188e90613da0565b60405180910390fd5b6118a2838383611ee3565b6118ad60008261161a565b6001600360008573ffffffffffffffffffffffffffffffffffffffff1673ffffffffffffffffffffffffffffffffffffffff16815260200190815260200160002060008282546118fd9190613dc0565b925050819055506001600360008473ffffffffffffffffffffffffffffffffffffffff1673ffffffffffffffffffffffffffffffffffffffff16815260200190815260200160002060008282546119549190613df4565b92505081905550816002600083815260200190815260200160002060006101000a81548173ffffffffffffffffffffffffffffffffffffffff021916908373ffffffffffffffffffffffffffffffffffffffff160217905550808273ffffffffffffffffffffffffffffffffffffffff168473ffffffffffffffffffffffffffffffffffffffff167fddf252ad1be2c89b69c2b068fc378daa952ba7f163c4a11628f55a4df523b3ef60405160405180910390a4611a13838383611ff7565b505050565b6000612710905090565b600081600001549050919050565b600082611a3d8584611ffc565b1490509392505050565b6001816000016000828254019250508190555050565b611a77828260405180602001604052806000815250612071565b5050565b8173ffffffffffffffffffffffffffffffffffffffff168373ffffffffffffffffffffffffffffffffffffffff161415611aea576040517f08c379a0000000000000000000000000000000000000000000000000000000008152600401611ae190613e96565b60405180910390fd5b80600560008573ffffffffffffffffffffffffffffffffffffffff1673ffffffffffffffffffffffffffffffffffffffff16815260200190815260200160002060008473ffffffffffffffffffffffffffffffffffffffff1673ffffffffffffffffffffffffffffffffffffffff16815260200190815260200160002060006101000a81548160ff0219169083151502179055508173ffffffffffffffffffffffffffffffffffffffff168373ffffffffffffffffffffffffffffffffffffffff167f17307eab39ab6107e8899845ad3d59bd9653f200f220920489ca2b5937696c3183604051611bdb9190612a2d565b60405180910390a3505050565b611bf38484846117b1565b611bff848484846120cc565b611c3e576040517f08c379a0000000000000000000000000000000000000000000000000000000008152600401611c3590613f28565b60405180910390fd5b50505050565b606060108054611c53906131f8565b80601f0160208091040260200160405190810160405280929190818152602001828054611c7f906131f8565b8015611ccc5780601f10611ca157610100808354040283529160200191611ccc565b820191906000526020600020905b815481529060010190602001808311611caf57829003601f168201915b5050505050905090565b60606000821415611d1e576040518060400160405280600181526020017f30000000000000000000000000000000000000000000000000000000000000008152509050611e32565b600082905060005b60008214611d50578080611d3990613f48565b915050600a82611d49919061352a565b9150611d26565b60008167ffffffffffffffff811115611d6c57611d6b612d1e565b5b6040519080825280601f01601f191660200182016040528015611d9e5781602001600182028036833780820191505090505b5090505b60008514611e2b57600182611db79190613dc0565b9150600a85611dc69190613f91565b6030611dd29190613df4565b60f81b818381518110611de857611de761367f565b5b60200101907effffffffffffffffffffffffffffffffffffffffffffffffffffffffffffff1916908160001a905350600a85611e24919061352a565b9450611da2565b8093505050505b919050565b60007f780e9d63000000000000000000000000000000000000000000000000000000007bffffffffffffffffffffffffffffffffffffffffffffffffffffffff1916827bffffffffffffffffffffffffffffffffffffffffffffffffffffffff19161480611eaa5750611ea982612263565b5b9050919050565b6000611ebc33610c4c565b15611ed057601436033560601c9050611edf565b611ed8612345565b9050611ee0565b5b90565b611eee83838361234d565b600073ffffffffffffffffffffffffffffffffffffffff168373ffffffffffffffffffffffffffffffffffffffff161415611f3157611f2c81612352565b611f70565b8173ffffffffffffffffffffffffffffffffffffffff168373ffffffffffffffffffffffffffffffffffffffff1614611f6f57611f6e838261239b565b5b5b600073ffffffffffffffffffffffffffffffffffffffff168273ffffffffffffffffffffffffffffffffffffffff161415611fb357611fae81612508565b611ff2565b8273ffffffffffffffffffffffffffffffffffffffff168273ffffffffffffffffffffffffffffffffffffffff1614611ff157611ff082826125d9565b5b5b505050565b505050565b60008082905060005b84518110156120665760008582815181106120235761202261367f565b5b602002602001015190508083116120455761203e8382612658565b9250612052565b61204f8184612658565b92505b50808061205e90613f48565b915050612005565b508091505092915050565b61207b838361266f565b61208860008484846120cc565b6120c7576040517f08c379a00000000000000000000000000000000000000000000000000000000081526004016120be90613f28565b60405180910390fd5b505050565b60006120ed8473ffffffffffffffffffffffffffffffffffffffff16612849565b15612256578373ffffffffffffffffffffffffffffffffffffffff1663150b7a0261211661160b565b8786866040518563ffffffff1660e01b81526004016121389493929190614017565b602060405180830381600087803b15801561215257600080fd5b505af192505050801561218357506040513d601f19601f820116820180604052508101906121809190614078565b60015b612206573d80600081146121b3576040519150601f19603f3d011682016040523d82523d6000602084013e6121b8565b606091505b506000815114156121fe576040517f08c379a00000000000000000000000000000000000000000000000000000000081526004016121f590613f28565b60405180910390fd5b805181602001fd5b63150b7a0260e01b7bffffffffffffffffffffffffffffffffffffffffffffffffffffffff1916817bffffffffffffffffffffffffffffffffffffffffffffffffffffffff19161491505061225b565b600190505b949350505050565b60007f80ac58cd000000000000000000000000000000000000000000000000000000007bffffffffffffffffffffffffffffffffffffffffffffffffffffffff1916827bffffffffffffffffffffffffffffffffffffffffffffffffffffffff1916148061232e57507f5b5e139f000000000000000000000000000000000000000000000000000000007bffffffffffffffffffffffffffffffffffffffffffffffffffffffff1916827bffffffffffffffffffffffffffffffffffffffffffffffffffffffff1916145b8061233e575061233d8261286c565b5b9050919050565b600033905090565b505050565b6008805490506009600083815260200190815260200160002081905550600881908060018154018082558091505060019003906000526020600020016000909190919091505550565b600060016123a8846110ad565b6123b29190613dc0565b9050600060076000848152602001908152602001600020549050818114612497576000600660008673ffffffffffffffffffffffffffffffffffffffff1673ffffffffffffffffffffffffffffffffffffffff168152602001908152602001600020600084815260200190815260200160002054905080600660008773ffffffffffffffffffffffffffffffffffffffff1673ffffffffffffffffffffffffffffffffffffffff168152602001908152602001600020600084815260200190815260200160002081905550816007600083815260200190815260200160002081905550505b6007600084815260200190815260200160002060009055600660008573ffffffffffffffffffffffffffffffffffffffff1673ffffffffffffffffffffffffffffffffffffffff16815260200190815260200160002060008381526020019081526020016000206000905550505050565b6000600160088054905061251c9190613dc0565b905060006009600084815260200190815260200160002054905060006008838154811061254c5761254b61367f565b5b90600052602060002001549050806008838154811061256e5761256d61367f565b5b9060005260206000200181905550816009600083815260200190815260200160002081905550600960008581526020019081526020016000206000905560088054806125bd576125bc6140a5565b5b6001900381819060005260206000200160009055905550505050565b60006125e4836110ad565b905081600660008573ffffffffffffffffffffffffffffffffffffffff1673ffffffffffffffffffffffffffffffffffffffff168152602001908152602001600020600083815260200190815260200160002081905550806007600084815260200190815260200160002081905550505050565b600082600052816020526040600020905092915050565b600073ffffffffffffffffffffffffffffffffffffffff168273ffffffffffffffffffffffffffffffffffffffff1614156126df576040517f08c379a00000000000000000000000000000000000000000000000000000000081526004016126d690614120565b60405180910390fd5b6126e88161159f565b15612728576040517f08c379a000000000000000000000000000000000000000000000000000000000815260040161271f9061418c565b60405180910390fd5b61273460008383611ee3565b6001600360008473ffffffffffffffffffffffffffffffffffffffff1673ffffffffffffffffffffffffffffffffffffffff16815260200190815260200160002060008282546127849190613df4565b92505081905550816002600083815260200190815260200160002060006101000a81548173ffffffffffffffffffffffffffffffffffffffff021916908373ffffffffffffffffffffffffffffffffffffffff160217905550808273ffffffffffffffffffffffffffffffffffffffff16600073ffffffffffffffffffffffffffffffffffffffff167fddf252ad1be2c89b69c2b068fc378daa952ba7f163c4a11628f55a4df523b3ef60405160405180910390a461284560008383611ff7565b5050565b6000808273ffffffffffffffffffffffffffffffffffffffff163b119050919050565b60007f01ffc9a7000000000000000000000000000000000000000000000000000000007bffffffffffffffffffffffffffffffffffffffffffffffffffffffff1916827bffffffffffffffffffffffffffffffffffffffffffffffffffffffff1916149050919050565b8280546128e2906131f8565b90600052602060002090601f016020900481019282612904576000855561294b565b82601f1061291d57805160ff191683800117855561294b565b8280016001018555821561294b579182015b8281111561294a57825182559160200191906001019061292f565b5b509050612958919061295c565b5090565b5b8082111561297557600081600090555060010161295d565b5090565b6000604051905090565b600080fd5b600080fd5b60007fffffffff0000000000000000000000000000000000000000000000000000000082169050919050565b6129c28161298d565b81146129cd57600080fd5b50565b6000813590506129df816129b9565b92915050565b6000602082840312156129fb576129fa612983565b5b6000612a09848285016129d0565b91505092915050565b60008115159050919050565b612a2781612a12565b82525050565b6000602082019050612a426000830184612a1e565b92915050565b600081519050919050565b600082825260208201905092915050565b60005b83811015612a82578082015181840152602081019050612a67565b83811115612a91576000848401525b50505050565b6000601f19601f8301169050919050565b6000612ab382612a48565b612abd8185612a53565b9350612acd818560208601612a64565b612ad681612a97565b840191505092915050565b60006020820190508181036000830152612afb8184612aa8565b905092915050565b6000819050919050565b612b1681612b03565b8114612b2157600080fd5b50565b600081359050612b3381612b0d565b92915050565b600060208284031215612b4f57612b4e612983565b5b6000612b5d84828501612b24565b91505092915050565b600073ffffffffffffffffffffffffffffffffffffffff82169050919050565b6000612b9182612b66565b9050919050565b612ba181612b86565b82525050565b6000602082019050612bbc6000830184612b98565b92915050565b612bcb81612b86565b8114612bd657600080fd5b50565b600081359050612be881612bc2565b92915050565b60008060408385031215612c0557612c04612983565b5b6000612c1385828601612bd9565b9250506020612c2485828601612b24565b9150509250929050565b612c3781612b03565b82525050565b6000602082019050612c526000830184612c2e565b92915050565b600080600060608486031215612c7157612c70612983565b5b6000612c7f86828701612bd9565b9350506020612c9086828701612bd9565b9250506040612ca186828701612b24565b9150509250925092565b60008060408385031215612cc257612cc1612983565b5b6000612cd085828601612b24565b9250506020612ce185828601612b24565b9150509250929050565b6000604082019050612d006000830185612b98565b612d0d6020830184612c2e565b9392505050565b600080fd5b600080fd5b7f4e487b7100000000000000000000000000000000000000000000000000000000600052604160045260246000fd5b612d5682612a97565b810181811067ffffffffffffffff82111715612d7557612d74612d1e565b5b80604052505050565b6000612d88612979565b9050612d948282612d4d565b919050565b600067ffffffffffffffff821115612db457612db3612d1e565b5b612dbd82612a97565b9050602081019050919050565b82818337600083830152505050565b6000612dec612de784612d99565b612d7e565b905082815260208101848484011115612e0857612e07612d19565b5b612e13848285612dca565b509392505050565b600082601f830112612e3057612e2f612d14565b5b8135612e40848260208601612dd9565b91505092915050565b600060208284031215612e5f57612e5e612983565b5b600082013567ffffffffffffffff811115612e7d57612e7c612988565b5b612e8984828501612e1b565b91505092915050565b600060208284031215612ea857612ea7612983565b5b6000612eb684828501612bd9565b91505092915050565b600080fd5b600080fd5b60008083601f840112612edf57612ede612d14565b5b8235905067ffffffffffffffff811115612efc57612efb612ebf565b5b602083019150836020820283011115612f1857612f17612ec4565b5b9250929050565b60008060208385031215612f3657612f35612983565b5b600083013567ffffffffffffffff811115612f5457612f53612988565b5b612f6085828601612ec9565b92509250509250929050565b6000819050919050565b612f7f81612f6c565b8114612f8a57600080fd5b50565b600081359050612f9c81612f76565b92915050565b600060208284031215612fb857612fb7612983565b5b6000612fc684828501612f8d565b91505092915050565b612fd881612a12565b8114612fe357600080fd5b50565b600081359050612ff581612fcf565b92915050565b6000806040838503121561301257613011612983565b5b600061302085828601612bd9565b925050602061303185828601612fe6565b9150509250929050565b600067ffffffffffffffff82111561305657613055612d1e565b5b61305f82612a97565b9050602081019050919050565b600061307f61307a8461303b565b612d7e565b90508281526020810184848401111561309b5761309a612d19565b5b6130a6848285612dca565b509392505050565b600082601f8301126130c3576130c2612d14565b5b81356130d384826020860161306c565b91505092915050565b600080600080608085870312156130f6576130f5612983565b5b600061310487828801612bd9565b945050602061311587828801612bd9565b935050604061312687828801612b24565b925050606085013567ffffffffffffffff81111561314757613146612988565b5b613153878288016130ae565b91505092959194509250565b61316881612f6c565b82525050565b6000602082019050613183600083018461315f565b92915050565b600080604083850312156131a05761319f612983565b5b60006131ae85828601612bd9565b92505060206131bf85828601612bd9565b9150509250929050565b7f4e487b7100000000000000000000000000000000000000000000000000000000600052602260045260246000fd5b6000600282049050600182168061321057607f821691505b60208210811415613224576132236131c9565b5b50919050565b7f4552433732313a20617070726f76656420717565727920666f72206e6f6e657860008201527f697374656e7420746f6b656e0000000000000000000000000000000000000000602082015250565b6000613286602c83612a53565b91506132918261322a565b604082019050919050565b600060208201905081810360008301526132b581613279565b9050919050565b7f4552433732313a20617070726f76616c20746f2063757272656e74206f776e6560008201527f7200000000000000000000000000000000000000000000000000000000000000602082015250565b6000613318602183612a53565b9150613323826132bc565b604082019050919050565b600060208201905081810360008301526133478161330b565b9050919050565b7f4552433732313a20617070726f76652063616c6c6572206973206e6f74206f7760008201527f6e6572206e6f7220617070726f76656420666f7220616c6c0000000000000000602082015250565b60006133aa603883612a53565b91506133b58261334e565b604082019050919050565b600060208201905081810360008301526133d98161339d565b9050919050565b7f4552433732313a207472616e736665722063616c6c6572206973206e6f74206f60008201527f776e6572206e6f7220617070726f766564000000000000000000000000000000602082015250565b600061343c603183612a53565b9150613447826133e0565b604082019050919050565b6000602082019050818103600083015261346b8161342f565b9050919050565b7f4e487b7100000000000000000000000000000000000000000000000000000000600052601160045260246000fd5b60006134ac82612b03565b91506134b783612b03565b9250817fffffffffffffffffffffffffffffffffffffffffffffffffffffffffffffffff04831182151516156134f0576134ef613472565b5b828202905092915050565b7f4e487b7100000000000000000000000000000000000000000000000000000000600052601260045260246000fd5b600061353582612b03565b915061354083612b03565b9250826135505761354f6134fb565b5b828204905092915050565b7f455243373231456e756d657261626c653a206f776e657220696e646578206f7560008201527f74206f6620626f756e6473000000000000000000000000000000000000000000602082015250565b60006135b7602b83612a53565b91506135c28261355b565b604082019050919050565b600060208201905081810360008301526135e6816135aa565b9050919050565b7f455243373231456e756d657261626c653a20676c6f62616c20696e646578206f60008201527f7574206f6620626f756e64730000000000000000000000000000000000000000602082015250565b6000613649602c83612a53565b9150613654826135ed565b604082019050919050565b600060208201905081810360008301526136788161363c565b9050919050565b7f4e487b7100000000000000000000000000000000000000000000000000000000600052603260045260246000fd5b7f4f776e61626c653a2063616c6c6572206973206e6f7420746865206f776e6572600082015250565b60006136e4602083612a53565b91506136ef826136ae565b602082019050919050565b60006020820190508181036000830152613713816136d7565b9050919050565b7f4e6f7420656e6f756768204e465473206c656674210000000000000000000000600082015250565b6000613750601583612a53565b915061375b8261371a565b602082019050919050565b6000602082019050818103600083015261377f81613743565b9050919050565b7f43616e6e6f74206d696e7420737065636966696564206e756d626572206f662060008201527f4e4654732e000000000000000000000000000000000000000000000000000000602082015250565b60006137e2602583612a53565b91506137ed82613786565b604082019050919050565b60006020820190508181036000830152613811816137d5565b9050919050565b7f4164647265737320616c726561647920636c61696d6564000000000000000000600082015250565b600061384e601783612a53565b915061385982613818565b602082019050919050565b6000602082019050818103600083015261387d81613841565b9050919050565b60008160601b9050919050565b600061389c82613884565b9050919050565b60006138ae82613891565b9050919050565b6138c66138c182612b86565b6138a3565b82525050565b60006138d882846138b5565b60148201915081905092915050565b7f496e76616c6964204d65726b6c652050726f6f662e0000000000000000000000600082015250565b600061391d601583612a53565b9150613928826138e7565b602082019050919050565b6000602082019050818103600083015261394c81613910565b9050919050565b7f4552433732313a206f776e657220717565727920666f72206e6f6e657869737460008201527f656e7420746f6b656e0000000000000000000000000000000000000000000000602082015250565b60006139af602983612a53565b91506139ba82613953565b604082019050919050565b600060208201905081810360008301526139de816139a2565b9050919050565b7f4552433732313a2062616c616e636520717565727920666f7220746865207a6560008201527f726f206164647265737300000000000000000000000000000000000000000000602082015250565b6000613a41602a83612a53565b9150613a4c826139e5565b604082019050919050565b60006020820190508181036000830152613a7081613a34565b9050919050565b7f4552433732314d657461646174613a2055524920717565727920666f72206e6f60008201527f6e6578697374656e7420746f6b656e0000000000000000000000000000000000602082015250565b6000613ad3602f83612a53565b9150613ade82613a77565b604082019050919050565b60006020820190508181036000830152613b0281613ac6565b9050919050565b600081905092915050565b6000613b1f82612a48565b613b298185613b09565b9350613b39818560208601612a64565b80840191505092915050565b60008190508160005260206000209050919050565b60008154613b67816131f8565b613b718186613b09565b94506001821660008114613b8c5760018114613b9d57613bd0565b60ff19831686528186019350613bd0565b613ba685613b45565b60005b83811015613bc857815481890152600182019150602081019050613ba9565b838801955050505b50505092915050565b6000613be58286613b14565b9150613bf18285613b14565b9150613bfd8284613b5a565b9150819050949350505050565b7f4552433732313a206f70657261746f7220717565727920666f72206e6f6e657860008201527f697374656e7420746f6b656e0000000000000000000000000000000000000000602082015250565b6000613c66602c83612a53565b9150613c7182613c0a565b604082019050919050565b60006020820190508181036000830152613c9581613c59565b9050919050565b7f4552433732313a207472616e736665722066726f6d20696e636f72726563742060008201527f6f776e6572000000000000000000000000000000000000000000000000000000602082015250565b6000613cf8602583612a53565b9150613d0382613c9c565b604082019050919050565b60006020820190508181036000830152613d2781613ceb565b9050919050565b7f4552433732313a207472616e7366657220746f20746865207a65726f2061646460008201527f7265737300000000000000000000000000000000000000000000000000000000602082015250565b6000613d8a602483612a53565b9150613d9582613d2e565b604082019050919050565b60006020820190508181036000830152613db981613d7d565b9050919050565b6000613dcb82612b03565b9150613dd683612b03565b925082821015613de957613de8613472565b5b828203905092915050565b6000613dff82612b03565b9150613e0a83612b03565b9250827fffffffffffffffffffffffffffffffffffffffffffffffffffffffffffffffff03821115613e3f57613e3e613472565b5b828201905092915050565b7f4552433732313a20617070726f766520746f2063616c6c657200000000000000600082015250565b6000613e80601983612a53565b9150613e8b82613e4a565b602082019050919050565b60006020820190508181036000830152613eaf81613e73565b9050919050565b7f4552433732313a207472616e7366657220746f206e6f6e20455243373231526560008201527f63656976657220696d706c656d656e7465720000000000000000000000000000602082015250565b6000613f12603283612a53565b9150613f1d82613eb6565b604082019050919050565b60006020820190508181036000830152613f4181613f05565b9050919050565b6000613f5382612b03565b91507fffffffffffffffffffffffffffffffffffffffffffffffffffffffffffffffff821415613f8657613f85613472565b5b600182019050919050565b6000613f9c82612b03565b9150613fa783612b03565b925082613fb757613fb66134fb565b5b828206905092915050565b600081519050919050565b600082825260208201905092915050565b6000613fe982613fc2565b613ff38185613fcd565b9350614003818560208601612a64565b61400c81612a97565b840191505092915050565b600060808201905061402c6000830187612b98565b6140396020830186612b98565b6140466040830185612c2e565b81810360608301526140588184613fde565b905095945050505050565b600081519050614072816129b9565b92915050565b60006020828403121561408e5761408d612983565b5b600061409c84828501614063565b91505092915050565b7f4e487b7100000000000000000000000000000000000000000000000000000000600052603160045260246000fd5b7f4552433732313a206d696e7420746f20746865207a65726f2061646472657373600082015250565b600061410a602083612a53565b9150614115826140d4565b602082019050919050565b60006020820190508181036000830152614139816140fd565b9050919050565b7f4552433732313a20746f6b656e20616c7265616479206d696e74656400000000600082015250565b6000614176601c83612a53565b915061418182614140565b602082019050919050565b600060208201905081810360008301526141a581614169565b905091905056fea2646970667358221220829c21d5c6afa0e94f6b632147698f279939cd28e12972b5ae9b6a670a9f584364736f6c63430008090033",
  "linkReferences": {},
  "deployedLinkReferences": {}
}